{
  "address": "0x5FC8d32690cc91D4c39d9d3abcBD16989F875707",
  "abi": [
    {
      "inputs": [
        {
          "internalType": "address",
          "name": "vrfCoordinatorV2",
          "type": "address"
        },
        {
          "internalType": "bytes32",
          "name": "gasLane",
          "type": "bytes32"
        },
        {
          "internalType": "uint64",
          "name": "subId",
          "type": "uint64"
        },
        {
          "internalType": "uint32",
          "name": "callBackGasLimit",
          "type": "uint32"
        },
        {
          "internalType": "string[3]",
          "name": "tokenUris",
          "type": "string[3]"
        },
        {
          "internalType": "uint256",
          "name": "mintFee",
          "type": "uint256"
        }
      ],
      "stateMutability": "nonpayable",
      "type": "constructor"
    },
    {
      "inputs": [
        {
          "internalType": "address",
          "name": "have",
          "type": "address"
        },
        {
          "internalType": "address",
          "name": "want",
          "type": "address"
        }
      ],
      "name": "OnlyCoordinatorCanFulfill",
      "type": "error"
    },
    {
      "inputs": [],
      "name": "RandomIPFSNFT__RangeOutOfBounds",
      "type": "error"
    },
    {
      "inputs": [],
      "name": "RandomIPFSNFT__TransferFailed",
      "type": "error"
    },
    {
      "inputs": [],
      "name": "RandomIpfsNft__AlreadyInitialized",
      "type": "error"
    },
    {
      "anonymous": false,
      "inputs": [
        {
          "indexed": true,
          "internalType": "address",
          "name": "owner",
          "type": "address"
        },
        {
          "indexed": true,
          "internalType": "address",
          "name": "approved",
          "type": "address"
        },
        {
          "indexed": true,
          "internalType": "uint256",
          "name": "tokenId",
          "type": "uint256"
        }
      ],
      "name": "Approval",
      "type": "event"
    },
    {
      "anonymous": false,
      "inputs": [
        {
          "indexed": true,
          "internalType": "address",
          "name": "owner",
          "type": "address"
        },
        {
          "indexed": true,
          "internalType": "address",
          "name": "operator",
          "type": "address"
        },
        {
          "indexed": false,
          "internalType": "bool",
          "name": "approved",
          "type": "bool"
        }
      ],
      "name": "ApprovalForAll",
      "type": "event"
    },
    {
      "anonymous": false,
      "inputs": [
        {
          "indexed": false,
          "internalType": "enum RandomIPFSNFT.Breed",
          "name": "breed",
          "type": "uint8"
        },
        {
          "indexed": false,
          "internalType": "address",
          "name": "minter",
          "type": "address"
        }
      ],
      "name": "NftMinted",
      "type": "event"
    },
    {
      "anonymous": false,
      "inputs": [
        {
          "indexed": true,
          "internalType": "uint256",
          "name": "requestId",
          "type": "uint256"
        },
        {
          "indexed": false,
          "internalType": "address",
          "name": "requester",
          "type": "address"
        }
      ],
      "name": "NftRequested",
      "type": "event"
    },
    {
      "anonymous": false,
      "inputs": [
        {
          "indexed": true,
          "internalType": "address",
          "name": "previousOwner",
          "type": "address"
        },
        {
          "indexed": true,
          "internalType": "address",
          "name": "newOwner",
          "type": "address"
        }
      ],
      "name": "OwnershipTransferred",
      "type": "event"
    },
    {
      "anonymous": false,
      "inputs": [
        {
          "indexed": true,
          "internalType": "address",
          "name": "from",
          "type": "address"
        },
        {
          "indexed": true,
          "internalType": "address",
          "name": "to",
          "type": "address"
        },
        {
          "indexed": true,
          "internalType": "uint256",
          "name": "tokenId",
          "type": "uint256"
        }
      ],
      "name": "Transfer",
      "type": "event"
    },
    {
      "inputs": [
        {
          "internalType": "address",
          "name": "to",
          "type": "address"
        },
        {
          "internalType": "uint256",
          "name": "tokenId",
          "type": "uint256"
        }
      ],
      "name": "approve",
      "outputs": [],
      "stateMutability": "nonpayable",
      "type": "function"
    },
    {
      "inputs": [
        {
          "internalType": "address",
          "name": "owner",
          "type": "address"
        }
      ],
      "name": "balanceOf",
      "outputs": [
        {
          "internalType": "uint256",
          "name": "",
          "type": "uint256"
        }
      ],
      "stateMutability": "view",
      "type": "function"
    },
    {
      "inputs": [
        {
          "internalType": "uint256",
          "name": "tokenId",
          "type": "uint256"
        }
      ],
      "name": "getApproved",
      "outputs": [
        {
          "internalType": "address",
          "name": "",
          "type": "address"
        }
      ],
      "stateMutability": "view",
      "type": "function"
    },
    {
      "inputs": [
        {
          "internalType": "uint256",
          "name": "moddedRng",
          "type": "uint256"
        }
      ],
      "name": "getBreedFromModdedRng",
      "outputs": [
        {
          "internalType": "enum RandomIPFSNFT.Breed",
          "name": "",
          "type": "uint8"
        }
      ],
      "stateMutability": "pure",
      "type": "function"
    },
    {
      "inputs": [],
      "name": "getChanceArray",
      "outputs": [
        {
          "internalType": "uint256[3]",
          "name": "",
          "type": "uint256[3]"
        }
      ],
      "stateMutability": "pure",
      "type": "function"
    },
    {
      "inputs": [],
      "name": "getInitialized",
      "outputs": [
        {
          "internalType": "bool",
          "name": "",
          "type": "bool"
        }
      ],
      "stateMutability": "view",
      "type": "function"
    },
    {
      "inputs": [],
      "name": "getMintFee",
      "outputs": [
        {
          "internalType": "uint256",
          "name": "",
          "type": "uint256"
        }
      ],
      "stateMutability": "view",
      "type": "function"
    },
    {
      "inputs": [],
      "name": "getTokenCounter",
      "outputs": [
        {
          "internalType": "uint256",
          "name": "",
          "type": "uint256"
        }
      ],
      "stateMutability": "view",
      "type": "function"
    },
    {
      "inputs": [
        {
          "internalType": "uint256",
          "name": "index",
          "type": "uint256"
        }
      ],
      "name": "getTokenUris",
      "outputs": [
        {
          "internalType": "string",
          "name": "",
          "type": "string"
        }
      ],
      "stateMutability": "view",
      "type": "function"
    },
    {
      "inputs": [
        {
          "internalType": "address",
          "name": "owner",
          "type": "address"
        },
        {
          "internalType": "address",
          "name": "operator",
          "type": "address"
        }
      ],
      "name": "isApprovedForAll",
      "outputs": [
        {
          "internalType": "bool",
          "name": "",
          "type": "bool"
        }
      ],
      "stateMutability": "view",
      "type": "function"
    },
    {
      "inputs": [],
      "name": "name",
      "outputs": [
        {
          "internalType": "string",
          "name": "",
          "type": "string"
        }
      ],
      "stateMutability": "view",
      "type": "function"
    },
    {
      "inputs": [],
      "name": "owner",
      "outputs": [
        {
          "internalType": "address",
          "name": "",
          "type": "address"
        }
      ],
      "stateMutability": "view",
      "type": "function"
    },
    {
      "inputs": [
        {
          "internalType": "uint256",
          "name": "tokenId",
          "type": "uint256"
        }
      ],
      "name": "ownerOf",
      "outputs": [
        {
          "internalType": "address",
          "name": "",
          "type": "address"
        }
      ],
      "stateMutability": "view",
      "type": "function"
    },
    {
      "inputs": [
        {
          "internalType": "uint256",
          "name": "requestId",
          "type": "uint256"
        },
        {
          "internalType": "uint256[]",
          "name": "randomWords",
          "type": "uint256[]"
        }
      ],
      "name": "rawFulfillRandomWords",
      "outputs": [],
      "stateMutability": "nonpayable",
      "type": "function"
    },
    {
      "inputs": [],
      "name": "renounceOwnership",
      "outputs": [],
      "stateMutability": "nonpayable",
      "type": "function"
    },
    {
      "inputs": [
        {
          "internalType": "uint256",
          "name": "",
          "type": "uint256"
        }
      ],
      "name": "requestIdtoOwner",
      "outputs": [
        {
          "internalType": "address",
          "name": "",
          "type": "address"
        }
      ],
      "stateMutability": "view",
      "type": "function"
    },
    {
      "inputs": [],
      "name": "requestNFT",
      "outputs": [
        {
          "internalType": "uint256",
          "name": "requestId",
          "type": "uint256"
        }
      ],
      "stateMutability": "payable",
      "type": "function"
    },
    {
      "inputs": [],
      "name": "s_tokenCounter",
      "outputs": [
        {
          "internalType": "uint256",
          "name": "",
          "type": "uint256"
        }
      ],
      "stateMutability": "view",
      "type": "function"
    },
    {
      "inputs": [
        {
          "internalType": "address",
          "name": "from",
          "type": "address"
        },
        {
          "internalType": "address",
          "name": "to",
          "type": "address"
        },
        {
          "internalType": "uint256",
          "name": "tokenId",
          "type": "uint256"
        }
      ],
      "name": "safeTransferFrom",
      "outputs": [],
      "stateMutability": "nonpayable",
      "type": "function"
    },
    {
      "inputs": [
        {
          "internalType": "address",
          "name": "from",
          "type": "address"
        },
        {
          "internalType": "address",
          "name": "to",
          "type": "address"
        },
        {
          "internalType": "uint256",
          "name": "tokenId",
          "type": "uint256"
        },
        {
          "internalType": "bytes",
          "name": "data",
          "type": "bytes"
        }
      ],
      "name": "safeTransferFrom",
      "outputs": [],
      "stateMutability": "nonpayable",
      "type": "function"
    },
    {
      "inputs": [
        {
          "internalType": "address",
          "name": "operator",
          "type": "address"
        },
        {
          "internalType": "bool",
          "name": "approved",
          "type": "bool"
        }
      ],
      "name": "setApprovalForAll",
      "outputs": [],
      "stateMutability": "nonpayable",
      "type": "function"
    },
    {
      "inputs": [
        {
          "internalType": "bytes4",
          "name": "interfaceId",
          "type": "bytes4"
        }
      ],
      "name": "supportsInterface",
      "outputs": [
        {
          "internalType": "bool",
          "name": "",
          "type": "bool"
        }
      ],
      "stateMutability": "view",
      "type": "function"
    },
    {
      "inputs": [],
      "name": "symbol",
      "outputs": [
        {
          "internalType": "string",
          "name": "",
          "type": "string"
        }
      ],
      "stateMutability": "view",
      "type": "function"
    },
    {
      "inputs": [
        {
          "internalType": "uint256",
          "name": "tokenId",
          "type": "uint256"
        }
      ],
      "name": "tokenURI",
      "outputs": [
        {
          "internalType": "string",
          "name": "",
          "type": "string"
        }
      ],
      "stateMutability": "view",
      "type": "function"
    },
    {
      "inputs": [
        {
          "internalType": "address",
          "name": "from",
          "type": "address"
        },
        {
          "internalType": "address",
          "name": "to",
          "type": "address"
        },
        {
          "internalType": "uint256",
          "name": "tokenId",
          "type": "uint256"
        }
      ],
      "name": "transferFrom",
      "outputs": [],
      "stateMutability": "nonpayable",
      "type": "function"
    },
    {
      "inputs": [
        {
          "internalType": "address",
          "name": "newOwner",
          "type": "address"
        }
      ],
      "name": "transferOwnership",
      "outputs": [],
      "stateMutability": "nonpayable",
      "type": "function"
    },
    {
      "inputs": [],
      "name": "withdraw",
      "outputs": [],
      "stateMutability": "nonpayable",
      "type": "function"
    }
  ],
  "transactionHash": "0x334ab039622a91cb52be59527538699be5348b0ee1ec696c4fd5ac9e809abebb",
  "args": [
    "0xe7f1725E7734CE288F8367e1Bb143E90bb3F0512",
    "0x79d3d8832d904592c0bf9818b621522c988bb8b0c05cdc3b15aea1b6e8db0c15",
    "1",
    "500000",
    [
      "ipfs://QmaVkBn2tKmjbhphU7eyztbvSQU5EXDdqRyXZtRhSGgJGo",
      "ipfs://QmYQC5aGZu2PTH8XzbJrbDnvhj3gVs7ya33H9mqUNvST3d",
      "ipfs://QmZYmH5iDbD6v3U2ixoVAjioSzvWJszDzYdbeCLquGSpVm"
    ],
    "10000000000000000"
  ],
  "numDeployments": 1,
  "solcInputHash": "321a1e7f3c6f2b5bcc926622ef610d2d",
  "bytecode": "0x6101406040523480156200001257600080fd5b506040516200430938038062004309833981810160405281019062000038919062000876565b6040518060400160405280600781526020017f57617264656c6c000000000000000000000000000000000000000000000000008152506040518060400160405280600481526020017f4f50414300000000000000000000000000000000000000000000000000000000815250878073ffffffffffffffffffffffffffffffffffffffff1660808173ffffffffffffffffffffffffffffffffffffffff1681525050508160009080519060200190620000f292919062000309565b5080600190805190602001906200010b92919062000309565b5050506200012e62000122620001c160201b60201c565b620001c960201b60201c565b8573ffffffffffffffffffffffffffffffffffffffff1660a08173ffffffffffffffffffffffffffffffffffffffff16815250508460c081815250508367ffffffffffffffff1660e08167ffffffffffffffff16815250508263ffffffff166101008163ffffffff1681525050806101208181525050620001b5826200028f60201b60201c565b50505050505062000996565b600033905090565b6000600760009054906101000a900473ffffffffffffffffffffffffffffffffffffffff16905081600760006101000a81548173ffffffffffffffffffffffffffffffffffffffff021916908373ffffffffffffffffffffffffffffffffffffffff1602179055508173ffffffffffffffffffffffffffffffffffffffff168173ffffffffffffffffffffffffffffffffffffffff167f8be0079c531659141344cd1fd0a4f28419497f9722a3daafe3b4186f6b6457e060405160405180910390a35050565b600b60009054906101000a900460ff1615620002d7576040517fddf8bf7000000000000000000000000000000000000000000000000000000000815260040160405180910390fd5b806009906003620002ea9291906200039a565b506001600b60006101000a81548160ff02191690831515021790555050565b828054620003179062000960565b90600052602060002090601f0160209004810192826200033b576000855562000387565b82601f106200035657805160ff191683800117855562000387565b8280016001018555821562000387579182015b828111156200038657825182559160200191906001019062000369565b5b50905062000396919062000401565b5090565b828054828255906000526020600020908101928215620003ee579160200282015b82811115620003ed578251829080519060200190620003dc92919062000309565b5091602001919060010190620003bb565b5b509050620003fd919062000420565b5090565b5b808211156200041c57600081600090555060010162000402565b5090565b5b808211156200044457600081816200043a919062000448565b5060010162000421565b5090565b508054620004569062000960565b6000825580601f106200046a57506200048b565b601f0160209004906000526020600020908101906200048a919062000401565b5b50565b6000604051905090565b600080fd5b600080fd5b600073ffffffffffffffffffffffffffffffffffffffff82169050919050565b6000620004cf82620004a2565b9050919050565b620004e181620004c2565b8114620004ed57600080fd5b50565b6000815190506200050181620004d6565b92915050565b6000819050919050565b6200051c8162000507565b81146200052857600080fd5b50565b6000815190506200053c8162000511565b92915050565b600067ffffffffffffffff82169050919050565b620005618162000542565b81146200056d57600080fd5b50565b600081519050620005818162000556565b92915050565b600063ffffffff82169050919050565b620005a28162000587565b8114620005ae57600080fd5b50565b600081519050620005c28162000597565b92915050565b600080fd5b6000601f19601f8301169050919050565b7f4e487b7100000000000000000000000000000000000000000000000000000000600052604160045260246000fd5b6200061882620005cd565b810181811067ffffffffffffffff821117156200063a5762000639620005de565b5b80604052505050565b60006200064f6200048e565b90506200065d82826200060d565b919050565b600067ffffffffffffffff82111562000680576200067f620005de565b5b602082029050919050565b600080fd5b600080fd5b600067ffffffffffffffff821115620006b357620006b2620005de565b5b620006be82620005cd565b9050602081019050919050565b60005b83811015620006eb578082015181840152602081019050620006ce565b83811115620006fb576000848401525b50505050565b600062000718620007128462000695565b62000643565b90508281526020810184848401111562000737576200073662000690565b5b62000744848285620006cb565b509392505050565b600082601f830112620007645762000763620005c8565b5b81516200077684826020860162000701565b91505092915050565b600062000796620007908462000662565b62000643565b90508060208402830185811115620007b357620007b26200068b565b5b835b818110156200080157805167ffffffffffffffff811115620007dc57620007db620005c8565b5b808601620007eb89826200074c565b85526020850194505050602081019050620007b5565b5050509392505050565b600082601f830112620008235762000822620005c8565b5b6003620008328482856200077f565b91505092915050565b6000819050919050565b62000850816200083b565b81146200085c57600080fd5b50565b600081519050620008708162000845565b92915050565b60008060008060008060c0878903121562000896576200089562000498565b5b6000620008a689828a01620004f0565b9650506020620008b989828a016200052b565b9550506040620008cc89828a0162000570565b9450506060620008df89828a01620005b1565b935050608087015167ffffffffffffffff8111156200090357620009026200049d565b5b6200091189828a016200080b565b92505060a06200092489828a016200085f565b9150509295509295509295565b7f4e487b7100000000000000000000000000000000000000000000000000000000600052602260045260246000fd5b600060028204905060018216806200097957607f821691505b6020821081141562000990576200098f62000931565b5b50919050565b60805160a05160c05160e051610100516101205161391c620009ed6000396000610dbc01526000610e6401526000610e4101526000610e2001526000610de4015260008181610a130152610a67015261391c6000f3fe60806040526004361061019c5760003560e01c806370a08231116100ec578063a22cb4651161008a578063c87b56dd11610064578063c87b56dd146105bb578063e985e9c5146105f8578063ee89dab414610635578063f2fde38b146106605761019c565b8063a22cb4651461052c578063a51cccf314610555578063b88d4fde146105925761019c565b80637abd25d1116100c65780637abd25d11461047b5780638da5cb5b1461049957806395d89b41146104c45780639cc59ef8146104ef5761019c565b806370a08231146103fc578063715018a6146104395780637a5caab3146104505761019c565b80631fe543e31161015957806342842e0e1161013357806342842e0e146103405780635dacf5f4146103695780636352211e146103945780636e02007d146103d15761019c565b80631fe543e3146102d757806323b872dd146103005780633ccfd60b146103295761019c565b806301ffc9a7146101a157806306fdde03146101de5780630719766514610209578063081812fc14610246578063095ea7b3146102835780630b21a83b146102ac575b600080fd5b3480156101ad57600080fd5b506101c860048036038101906101c391906124ca565b610689565b6040516101d59190612512565b60405180910390f35b3480156101ea57600080fd5b506101f361076b565b60405161020091906125c6565b60405180910390f35b34801561021557600080fd5b50610230600480360381019061022b919061261e565b6107fd565b60405161023d91906125c6565b60405180910390f35b34801561025257600080fd5b5061026d6004803603810190610268919061261e565b6108ad565b60405161027a919061268c565b60405180910390f35b34801561028f57600080fd5b506102aa60048036038101906102a591906126d3565b6108f3565b005b3480156102b857600080fd5b506102c1610a0b565b6040516102ce9190612722565b60405180910390f35b3480156102e357600080fd5b506102fe60048036038101906102f99190612885565b610a11565b005b34801561030c57600080fd5b50610327600480360381019061032291906128e1565b610ad1565b005b34801561033557600080fd5b5061033e610b31565b005b34801561034c57600080fd5b50610367600480360381019061036291906128e1565b610be5565b005b34801561037557600080fd5b5061037e610c05565b60405161038b91906129df565b60405180910390f35b3480156103a057600080fd5b506103bb60048036038101906103b6919061261e565b610c30565b6040516103c8919061268c565b60405180910390f35b3480156103dd57600080fd5b506103e6610ce2565b6040516103f39190612722565b60405180910390f35b34801561040857600080fd5b50610423600480360381019061041e91906129fa565b610cec565b6040516104309190612722565b60405180910390f35b34801561044557600080fd5b5061044e610da4565b005b34801561045c57600080fd5b50610465610db8565b6040516104729190612722565b60405180910390f35b610483610de0565b6040516104909190612722565b60405180910390f35b3480156104a557600080fd5b506104ae610f34565b6040516104bb919061268c565b60405180910390f35b3480156104d057600080fd5b506104d9610f5e565b6040516104e691906125c6565b60405180910390f35b3480156104fb57600080fd5b506105166004803603810190610511919061261e565b610ff0565b604051610523919061268c565b60405180910390f35b34801561053857600080fd5b50610553600480360381019061054e9190612a53565b611023565b005b34801561056157600080fd5b5061057c6004803603810190610577919061261e565b611039565b6040516105899190612b0a565b60405180910390f35b34801561059e57600080fd5b506105b960048036038101906105b49190612bda565b611105565b005b3480156105c757600080fd5b506105e260048036038101906105dd919061261e565b611167565b6040516105ef91906125c6565b60405180910390f35b34801561060457600080fd5b5061061f600480360381019061061a9190612c5d565b61127a565b60405161062c9190612512565b60405180910390f35b34801561064157600080fd5b5061064a61130e565b6040516106579190612512565b60405180910390f35b34801561066c57600080fd5b50610687600480360381019061068291906129fa565b611325565b005b60007f80ac58cd000000000000000000000000000000000000000000000000000000007bffffffffffffffffffffffffffffffffffffffffffffffffffffffff1916827bffffffffffffffffffffffffffffffffffffffffffffffffffffffff1916148061075457507f5b5e139f000000000000000000000000000000000000000000000000000000007bffffffffffffffffffffffffffffffffffffffffffffffffffffffff1916827bffffffffffffffffffffffffffffffffffffffffffffffffffffffff1916145b806107645750610763826113a9565b5b9050919050565b60606000805461077a90612ccc565b80601f01602080910402602001604051908101604052809291908181526020018280546107a690612ccc565b80156107f35780601f106107c8576101008083540402835291602001916107f3565b820191906000526020600020905b8154815290600101906020018083116107d657829003601f168201915b5050505050905090565b60606009828154811061081357610812612cfe565b5b90600052602060002001805461082890612ccc565b80601f016020809104026020016040519081016040528092919081815260200182805461085490612ccc565b80156108a15780601f10610876576101008083540402835291602001916108a1565b820191906000526020600020905b81548152906001019060200180831161088457829003601f168201915b50505050509050919050565b60006108b882611413565b6004600083815260200190815260200160002060009054906101000a900473ffffffffffffffffffffffffffffffffffffffff169050919050565b60006108fe82610c30565b90508073ffffffffffffffffffffffffffffffffffffffff168373ffffffffffffffffffffffffffffffffffffffff16141561096f576040517f08c379a000000000000000000000000000000000000000000000000000000000815260040161096690612d9f565b60405180910390fd5b8073ffffffffffffffffffffffffffffffffffffffff1661098e61145e565b73ffffffffffffffffffffffffffffffffffffffff1614806109bd57506109bc816109b761145e565b61127a565b5b6109fc576040517f08c379a00000000000000000000000000000000000000000000000000000000081526004016109f390612e31565b60405180910390fd5b610a068383611466565b505050565b600a5481565b7f000000000000000000000000000000000000000000000000000000000000000073ffffffffffffffffffffffffffffffffffffffff163373ffffffffffffffffffffffffffffffffffffffff1614610ac357337f00000000000000000000000000000000000000000000000000000000000000006040517f1cf993f4000000000000000000000000000000000000000000000000000000008152600401610aba929190612e51565b60405180910390fd5b610acd828261151f565b5050565b610ae2610adc61145e565b826116b9565b610b21576040517f08c379a0000000000000000000000000000000000000000000000000000000008152600401610b1890612eec565b60405180910390fd5b610b2c83838361174e565b505050565b610b396119b5565b600047905060003373ffffffffffffffffffffffffffffffffffffffff1682604051610b6490612f3d565b60006040518083038185875af1925050503d8060008114610ba1576040519150601f19603f3d011682016040523d82523d6000602084013e610ba6565b606091505b5050905080610be1576040517fff2f968b00000000000000000000000000000000000000000000000000000000815260040160405180910390fd5b5050565b610c0083838360405180602001604052806000815250611105565b505050565b610c0d612399565b6040518060600160405280600a8152602001602881526020016064815250905090565b6000806002600084815260200190815260200160002060009054906101000a900473ffffffffffffffffffffffffffffffffffffffff169050600073ffffffffffffffffffffffffffffffffffffffff168173ffffffffffffffffffffffffffffffffffffffff161415610cd9576040517f08c379a0000000000000000000000000000000000000000000000000000000008152600401610cd090612f9e565b60405180910390fd5b80915050919050565b6000600a54905090565b60008073ffffffffffffffffffffffffffffffffffffffff168273ffffffffffffffffffffffffffffffffffffffff161415610d5d576040517f08c379a0000000000000000000000000000000000000000000000000000000008152600401610d5490613030565b60405180910390fd5b600360008373ffffffffffffffffffffffffffffffffffffffff1673ffffffffffffffffffffffffffffffffffffffff168152602001908152602001600020549050919050565b610dac6119b5565b610db66000611a33565b565b60007f0000000000000000000000000000000000000000000000000000000000000000905090565b60007f000000000000000000000000000000000000000000000000000000000000000073ffffffffffffffffffffffffffffffffffffffff16635d3b1d307f00000000000000000000000000000000000000000000000000000000000000007f000000000000000000000000000000000000000000000000000000000000000060037f000000000000000000000000000000000000000000000000000000000000000060016040518663ffffffff1660e01b8152600401610ea59594939291906130c8565b602060405180830381600087803b158015610ebf57600080fd5b505af1158015610ed3573d6000803e3d6000fd5b505050506040513d601f19601f82011682018060405250810190610ef79190613130565b9050807ff873236e6cc0ecc5be1a9a35c95ee5b8d1ac4cc7bfef0cc5060391d6cc98e26b33604051610f29919061268c565b60405180910390a290565b6000600760009054906101000a900473ffffffffffffffffffffffffffffffffffffffff16905090565b606060018054610f6d90612ccc565b80601f0160208091040260200160405190810160405280929190818152602001828054610f9990612ccc565b8015610fe65780601f10610fbb57610100808354040283529160200191610fe6565b820191906000526020600020905b815481529060010190602001808311610fc957829003601f168201915b5050505050905090565b60086020528060005260406000206000915054906101000a900473ffffffffffffffffffffffffffffffffffffffff1681565b61103561102e61145e565b8383611af9565b5050565b60008060009050600061104a610c05565b905060005b60038110156110cd5782851015801561107e575081816003811061107657611075612cfe565b5b602002015185105b156110a05780600281111561109657611095612a93565b5b9350505050611100565b8181600381106110b3576110b2612cfe565b5b6020020151925080806110c59061318c565b91505061104f565b506040517f4b145a0700000000000000000000000000000000000000000000000000000000815260040160405180910390fd5b919050565b61111661111061145e565b836116b9565b611155576040517f08c379a000000000000000000000000000000000000000000000000000000000815260040161114c90612eec565b60405180910390fd5b61116184848484611c66565b50505050565b606061117282611413565b600060066000848152602001908152602001600020805461119290612ccc565b80601f01602080910402602001604051908101604052809291908181526020018280546111be90612ccc565b801561120b5780601f106111e05761010080835404028352916020019161120b565b820191906000526020600020905b8154815290600101906020018083116111ee57829003601f168201915b50505050509050600061121c611cc2565b9050600081511415611232578192505050611275565b60008251111561126757808260405160200161124f929190613211565b60405160208183030381529060405292505050611275565b61127084611cd9565b925050505b919050565b6000600560008473ffffffffffffffffffffffffffffffffffffffff1673ffffffffffffffffffffffffffffffffffffffff16815260200190815260200160002060008373ffffffffffffffffffffffffffffffffffffffff1673ffffffffffffffffffffffffffffffffffffffff16815260200190815260200160002060009054906101000a900460ff16905092915050565b6000600b60009054906101000a900460ff16905090565b61132d6119b5565b600073ffffffffffffffffffffffffffffffffffffffff168173ffffffffffffffffffffffffffffffffffffffff16141561139d576040517f08c379a0000000000000000000000000000000000000000000000000000000008152600401611394906132a7565b60405180910390fd5b6113a681611a33565b50565b60007f01ffc9a7000000000000000000000000000000000000000000000000000000007bffffffffffffffffffffffffffffffffffffffffffffffffffffffff1916827bffffffffffffffffffffffffffffffffffffffffffffffffffffffff1916149050919050565b61141c81611d41565b61145b576040517f08c379a000000000000000000000000000000000000000000000000000000000815260040161145290612f9e565b60405180910390fd5b50565b600033905090565b816004600083815260200190815260200160002060006101000a81548173ffffffffffffffffffffffffffffffffffffffff021916908373ffffffffffffffffffffffffffffffffffffffff160217905550808273ffffffffffffffffffffffffffffffffffffffff166114d983610c30565b73ffffffffffffffffffffffffffffffffffffffff167f8c5be1e5ebec7d5bd14f71427d1e84f3dd0314c0f7b2291e5b200ac8c7c3b92560405160405180910390a45050565b60006008600084815260200190815260200160002060009054906101000a900473ffffffffffffffffffffffffffffffffffffffff1690506000600a5490506001600a5461156d91906132c7565b600a81905550600060648460008151811061158b5761158a612cfe565b5b602002602001015161159d919061334c565b905060006115aa82611039565b90506115b68484611dad565b6116788360098360028111156115cf576115ce612a93565b5b815481106115e0576115df612cfe565b5b9060005260206000200180546115f590612ccc565b80601f016020809104026020016040519081016040528092919081815260200182805461162190612ccc565b801561166e5780601f106116435761010080835404028352916020019161166e565b820191906000526020600020905b81548152906001019060200180831161165157829003601f168201915b5050505050611dcb565b7f8a269f26b688e110e9cbd887d163dab35cae678fa353a0292de532c0cac1ecdc81856040516116a992919061337d565b60405180910390a1505050505050565b6000806116c583610c30565b90508073ffffffffffffffffffffffffffffffffffffffff168473ffffffffffffffffffffffffffffffffffffffff1614806117075750611706818561127a565b5b8061174557508373ffffffffffffffffffffffffffffffffffffffff1661172d846108ad565b73ffffffffffffffffffffffffffffffffffffffff16145b91505092915050565b8273ffffffffffffffffffffffffffffffffffffffff1661176e82610c30565b73ffffffffffffffffffffffffffffffffffffffff16146117c4576040517f08c379a00000000000000000000000000000000000000000000000000000000081526004016117bb90613418565b60405180910390fd5b600073ffffffffffffffffffffffffffffffffffffffff168273ffffffffffffffffffffffffffffffffffffffff161415611834576040517f08c379a000000000000000000000000000000000000000000000000000000000815260040161182b906134aa565b60405180910390fd5b61183f838383611e3f565b61184a600082611466565b6001600360008573ffffffffffffffffffffffffffffffffffffffff1673ffffffffffffffffffffffffffffffffffffffff168152602001908152602001600020600082825461189a91906134ca565b925050819055506001600360008473ffffffffffffffffffffffffffffffffffffffff1673ffffffffffffffffffffffffffffffffffffffff16815260200190815260200160002060008282546118f191906132c7565b92505081905550816002600083815260200190815260200160002060006101000a81548173ffffffffffffffffffffffffffffffffffffffff021916908373ffffffffffffffffffffffffffffffffffffffff160217905550808273ffffffffffffffffffffffffffffffffffffffff168473ffffffffffffffffffffffffffffffffffffffff167fddf252ad1be2c89b69c2b068fc378daa952ba7f163c4a11628f55a4df523b3ef60405160405180910390a46119b0838383611e44565b505050565b6119bd61145e565b73ffffffffffffffffffffffffffffffffffffffff166119db610f34565b73ffffffffffffffffffffffffffffffffffffffff1614611a31576040517f08c379a0000000000000000000000000000000000000000000000000000000008152600401611a289061354a565b60405180910390fd5b565b6000600760009054906101000a900473ffffffffffffffffffffffffffffffffffffffff16905081600760006101000a81548173ffffffffffffffffffffffffffffffffffffffff021916908373ffffffffffffffffffffffffffffffffffffffff1602179055508173ffffffffffffffffffffffffffffffffffffffff168173ffffffffffffffffffffffffffffffffffffffff167f8be0079c531659141344cd1fd0a4f28419497f9722a3daafe3b4186f6b6457e060405160405180910390a35050565b8173ffffffffffffffffffffffffffffffffffffffff168373ffffffffffffffffffffffffffffffffffffffff161415611b68576040517f08c379a0000000000000000000000000000000000000000000000000000000008152600401611b5f906135b6565b60405180910390fd5b80600560008573ffffffffffffffffffffffffffffffffffffffff1673ffffffffffffffffffffffffffffffffffffffff16815260200190815260200160002060008473ffffffffffffffffffffffffffffffffffffffff1673ffffffffffffffffffffffffffffffffffffffff16815260200190815260200160002060006101000a81548160ff0219169083151502179055508173ffffffffffffffffffffffffffffffffffffffff168373ffffffffffffffffffffffffffffffffffffffff167f17307eab39ab6107e8899845ad3d59bd9653f200f220920489ca2b5937696c3183604051611c599190612512565b60405180910390a3505050565b611c7184848461174e565b611c7d84848484611e49565b611cbc576040517f08c379a0000000000000000000000000000000000000000000000000000000008152600401611cb390613648565b60405180910390fd5b50505050565b606060405180602001604052806000815250905090565b6060611ce482611413565b6000611cee611cc2565b90506000815111611d0e5760405180602001604052806000815250611d39565b80611d1884611fe0565b604051602001611d29929190613211565b6040516020818303038152906040525b915050919050565b60008073ffffffffffffffffffffffffffffffffffffffff166002600084815260200190815260200160002060009054906101000a900473ffffffffffffffffffffffffffffffffffffffff1673ffffffffffffffffffffffffffffffffffffffff1614159050919050565b611dc7828260405180602001604052806000815250612141565b5050565b611dd482611d41565b611e13576040517f08c379a0000000000000000000000000000000000000000000000000000000008152600401611e0a906136da565b60405180910390fd5b80600660008481526020019081526020016000209080519060200190611e3a9291906123bb565b505050565b505050565b505050565b6000611e6a8473ffffffffffffffffffffffffffffffffffffffff1661219c565b15611fd3578373ffffffffffffffffffffffffffffffffffffffff1663150b7a02611e9361145e565b8786866040518563ffffffff1660e01b8152600401611eb5949392919061374f565b602060405180830381600087803b158015611ecf57600080fd5b505af1925050508015611f0057506040513d601f19601f82011682018060405250810190611efd91906137b0565b60015b611f83573d8060008114611f30576040519150601f19603f3d011682016040523d82523d6000602084013e611f35565b606091505b50600081511415611f7b576040517f08c379a0000000000000000000000000000000000000000000000000000000008152600401611f7290613648565b60405180910390fd5b805181602001fd5b63150b7a0260e01b7bffffffffffffffffffffffffffffffffffffffffffffffffffffffff1916817bffffffffffffffffffffffffffffffffffffffffffffffffffffffff191614915050611fd8565b600190505b949350505050565b60606000821415612028576040518060400160405280600181526020017f3000000000000000000000000000000000000000000000000000000000000000815250905061213c565b600082905060005b6000821461205a5780806120439061318c565b915050600a8261205391906137dd565b9150612030565b60008167ffffffffffffffff81111561207657612075612742565b5b6040519080825280601f01601f1916602001820160405280156120a85781602001600182028036833780820191505090505b5090505b60008514612135576001826120c191906134ca565b9150600a856120d0919061334c565b60306120dc91906132c7565b60f81b8183815181106120f2576120f1612cfe565b5b60200101907effffffffffffffffffffffffffffffffffffffffffffffffffffffffffffff1916908160001a905350600a8561212e91906137dd565b94506120ac565b8093505050505b919050565b61214b83836121bf565b6121586000848484611e49565b612197576040517f08c379a000000000000000000000000000000000000000000000000000000000815260040161218e90613648565b60405180910390fd5b505050565b6000808273ffffffffffffffffffffffffffffffffffffffff163b119050919050565b600073ffffffffffffffffffffffffffffffffffffffff168273ffffffffffffffffffffffffffffffffffffffff16141561222f576040517f08c379a00000000000000000000000000000000000000000000000000000000081526004016122269061385a565b60405180910390fd5b61223881611d41565b15612278576040517f08c379a000000000000000000000000000000000000000000000000000000000815260040161226f906138c6565b60405180910390fd5b61228460008383611e3f565b6001600360008473ffffffffffffffffffffffffffffffffffffffff1673ffffffffffffffffffffffffffffffffffffffff16815260200190815260200160002060008282546122d491906132c7565b92505081905550816002600083815260200190815260200160002060006101000a81548173ffffffffffffffffffffffffffffffffffffffff021916908373ffffffffffffffffffffffffffffffffffffffff160217905550808273ffffffffffffffffffffffffffffffffffffffff16600073ffffffffffffffffffffffffffffffffffffffff167fddf252ad1be2c89b69c2b068fc378daa952ba7f163c4a11628f55a4df523b3ef60405160405180910390a461239560008383611e44565b5050565b6040518060600160405280600390602082028036833780820191505090505090565b8280546123c790612ccc565b90600052602060002090601f0160209004810192826123e95760008555612430565b82601f1061240257805160ff1916838001178555612430565b82800160010185558215612430579182015b8281111561242f578251825591602001919060010190612414565b5b50905061243d9190612441565b5090565b5b8082111561245a576000816000905550600101612442565b5090565b6000604051905090565b600080fd5b600080fd5b60007fffffffff0000000000000000000000000000000000000000000000000000000082169050919050565b6124a781612472565b81146124b257600080fd5b50565b6000813590506124c48161249e565b92915050565b6000602082840312156124e0576124df612468565b5b60006124ee848285016124b5565b91505092915050565b60008115159050919050565b61250c816124f7565b82525050565b60006020820190506125276000830184612503565b92915050565b600081519050919050565b600082825260208201905092915050565b60005b8381101561256757808201518184015260208101905061254c565b83811115612576576000848401525b50505050565b6000601f19601f8301169050919050565b60006125988261252d565b6125a28185612538565b93506125b2818560208601612549565b6125bb8161257c565b840191505092915050565b600060208201905081810360008301526125e0818461258d565b905092915050565b6000819050919050565b6125fb816125e8565b811461260657600080fd5b50565b600081359050612618816125f2565b92915050565b60006020828403121561263457612633612468565b5b600061264284828501612609565b91505092915050565b600073ffffffffffffffffffffffffffffffffffffffff82169050919050565b60006126768261264b565b9050919050565b6126868161266b565b82525050565b60006020820190506126a1600083018461267d565b92915050565b6126b08161266b565b81146126bb57600080fd5b50565b6000813590506126cd816126a7565b92915050565b600080604083850312156126ea576126e9612468565b5b60006126f8858286016126be565b925050602061270985828601612609565b9150509250929050565b61271c816125e8565b82525050565b60006020820190506127376000830184612713565b92915050565b600080fd5b7f4e487b7100000000000000000000000000000000000000000000000000000000600052604160045260246000fd5b61277a8261257c565b810181811067ffffffffffffffff8211171561279957612798612742565b5b80604052505050565b60006127ac61245e565b90506127b88282612771565b919050565b600067ffffffffffffffff8211156127d8576127d7612742565b5b602082029050602081019050919050565b600080fd5b60006128016127fc846127bd565b6127a2565b90508083825260208201905060208402830185811115612824576128236127e9565b5b835b8181101561284d57806128398882612609565b845260208401935050602081019050612826565b5050509392505050565b600082601f83011261286c5761286b61273d565b5b813561287c8482602086016127ee565b91505092915050565b6000806040838503121561289c5761289b612468565b5b60006128aa85828601612609565b925050602083013567ffffffffffffffff8111156128cb576128ca61246d565b5b6128d785828601612857565b9150509250929050565b6000806000606084860312156128fa576128f9612468565b5b6000612908868287016126be565b9350506020612919868287016126be565b925050604061292a86828701612609565b9150509250925092565b600060039050919050565b600081905092915050565b6000819050919050565b61295d816125e8565b82525050565b600061296f8383612954565b60208301905092915050565b6000602082019050919050565b61299181612934565b61299b818461293f565b92506129a68261294a565b8060005b838110156129d75781516129be8782612963565b96506129c98361297b565b9250506001810190506129aa565b505050505050565b60006060820190506129f46000830184612988565b92915050565b600060208284031215612a1057612a0f612468565b5b6000612a1e848285016126be565b91505092915050565b612a30816124f7565b8114612a3b57600080fd5b50565b600081359050612a4d81612a27565b92915050565b60008060408385031215612a6a57612a69612468565b5b6000612a78858286016126be565b9250506020612a8985828601612a3e565b9150509250929050565b7f4e487b7100000000000000000000000000000000000000000000000000000000600052602160045260246000fd5b60038110612ad357612ad2612a93565b5b50565b6000819050612ae482612ac2565b919050565b6000612af482612ad6565b9050919050565b612b0481612ae9565b82525050565b6000602082019050612b1f6000830184612afb565b92915050565b600080fd5b600067ffffffffffffffff821115612b4557612b44612742565b5b612b4e8261257c565b9050602081019050919050565b82818337600083830152505050565b6000612b7d612b7884612b2a565b6127a2565b905082815260208101848484011115612b9957612b98612b25565b5b612ba4848285612b5b565b509392505050565b600082601f830112612bc157612bc061273d565b5b8135612bd1848260208601612b6a565b91505092915050565b60008060008060808587031215612bf457612bf3612468565b5b6000612c02878288016126be565b9450506020612c13878288016126be565b9350506040612c2487828801612609565b925050606085013567ffffffffffffffff811115612c4557612c4461246d565b5b612c5187828801612bac565b91505092959194509250565b60008060408385031215612c7457612c73612468565b5b6000612c82858286016126be565b9250506020612c93858286016126be565b9150509250929050565b7f4e487b7100000000000000000000000000000000000000000000000000000000600052602260045260246000fd5b60006002820490506001821680612ce457607f821691505b60208210811415612cf857612cf7612c9d565b5b50919050565b7f4e487b7100000000000000000000000000000000000000000000000000000000600052603260045260246000fd5b7f4552433732313a20617070726f76616c20746f2063757272656e74206f776e6560008201527f7200000000000000000000000000000000000000000000000000000000000000602082015250565b6000612d89602183612538565b9150612d9482612d2d565b604082019050919050565b60006020820190508181036000830152612db881612d7c565b9050919050565b7f4552433732313a20617070726f76652063616c6c6572206973206e6f7420746f60008201527f6b656e206f776e6572206e6f7220617070726f76656420666f7220616c6c0000602082015250565b6000612e1b603e83612538565b9150612e2682612dbf565b604082019050919050565b60006020820190508181036000830152612e4a81612e0e565b9050919050565b6000604082019050612e66600083018561267d565b612e73602083018461267d565b9392505050565b7f4552433732313a2063616c6c6572206973206e6f7420746f6b656e206f776e6560008201527f72206e6f7220617070726f766564000000000000000000000000000000000000602082015250565b6000612ed6602e83612538565b9150612ee182612e7a565b604082019050919050565b60006020820190508181036000830152612f0581612ec9565b9050919050565b600081905092915050565b50565b6000612f27600083612f0c565b9150612f3282612f17565b600082019050919050565b6000612f4882612f1a565b9150819050919050565b7f4552433732313a20696e76616c696420746f6b656e2049440000000000000000600082015250565b6000612f88601883612538565b9150612f9382612f52565b602082019050919050565b60006020820190508181036000830152612fb781612f7b565b9050919050565b7f4552433732313a2061646472657373207a65726f206973206e6f74206120766160008201527f6c6964206f776e65720000000000000000000000000000000000000000000000602082015250565b600061301a602983612538565b915061302582612fbe565b604082019050919050565b600060208201905081810360008301526130498161300d565b9050919050565b6000819050919050565b61306381613050565b82525050565b600067ffffffffffffffff82169050919050565b61308681613069565b82525050565b600061ffff82169050919050565b6130a38161308c565b82525050565b600063ffffffff82169050919050565b6130c2816130a9565b82525050565b600060a0820190506130dd600083018861305a565b6130ea602083018761307d565b6130f7604083018661309a565b61310460608301856130b9565b61311160808301846130b9565b9695505050505050565b60008151905061312a816125f2565b92915050565b60006020828403121561314657613145612468565b5b60006131548482850161311b565b91505092915050565b7f4e487b7100000000000000000000000000000000000000000000000000000000600052601160045260246000fd5b6000613197826125e8565b91507fffffffffffffffffffffffffffffffffffffffffffffffffffffffffffffffff8214156131ca576131c961315d565b5b600182019050919050565b600081905092915050565b60006131eb8261252d565b6131f581856131d5565b9350613205818560208601612549565b80840191505092915050565b600061321d82856131e0565b915061322982846131e0565b91508190509392505050565b7f4f776e61626c653a206e6577206f776e657220697320746865207a65726f206160008201527f6464726573730000000000000000000000000000000000000000000000000000602082015250565b6000613291602683612538565b915061329c82613235565b604082019050919050565b600060208201905081810360008301526132c081613284565b9050919050565b60006132d2826125e8565b91506132dd836125e8565b9250827fffffffffffffffffffffffffffffffffffffffffffffffffffffffffffffffff038211156133125761331161315d565b5b828201905092915050565b7f4e487b7100000000000000000000000000000000000000000000000000000000600052601260045260246000fd5b6000613357826125e8565b9150613362836125e8565b9250826133725761337161331d565b5b828206905092915050565b60006040820190506133926000830185612afb565b61339f602083018461267d565b9392505050565b7f4552433732313a207472616e736665722066726f6d20696e636f72726563742060008201527f6f776e6572000000000000000000000000000000000000000000000000000000602082015250565b6000613402602583612538565b915061340d826133a6565b604082019050919050565b60006020820190508181036000830152613431816133f5565b9050919050565b7f4552433732313a207472616e7366657220746f20746865207a65726f2061646460008201527f7265737300000000000000000000000000000000000000000000000000000000602082015250565b6000613494602483612538565b915061349f82613438565b604082019050919050565b600060208201905081810360008301526134c381613487565b9050919050565b60006134d5826125e8565b91506134e0836125e8565b9250828210156134f3576134f261315d565b5b828203905092915050565b7f4f776e61626c653a2063616c6c6572206973206e6f7420746865206f776e6572600082015250565b6000613534602083612538565b915061353f826134fe565b602082019050919050565b6000602082019050818103600083015261356381613527565b9050919050565b7f4552433732313a20617070726f766520746f2063616c6c657200000000000000600082015250565b60006135a0601983612538565b91506135ab8261356a565b602082019050919050565b600060208201905081810360008301526135cf81613593565b9050919050565b7f4552433732313a207472616e7366657220746f206e6f6e20455243373231526560008201527f63656976657220696d706c656d656e7465720000000000000000000000000000602082015250565b6000613632603283612538565b915061363d826135d6565b604082019050919050565b6000602082019050818103600083015261366181613625565b9050919050565b7f45524337323155524953746f726167653a2055524920736574206f66206e6f6e60008201527f6578697374656e7420746f6b656e000000000000000000000000000000000000602082015250565b60006136c4602e83612538565b91506136cf82613668565b604082019050919050565b600060208201905081810360008301526136f3816136b7565b9050919050565b600081519050919050565b600082825260208201905092915050565b6000613721826136fa565b61372b8185613705565b935061373b818560208601612549565b6137448161257c565b840191505092915050565b6000608082019050613764600083018761267d565b613771602083018661267d565b61377e6040830185612713565b81810360608301526137908184613716565b905095945050505050565b6000815190506137aa8161249e565b92915050565b6000602082840312156137c6576137c5612468565b5b60006137d48482850161379b565b91505092915050565b60006137e8826125e8565b91506137f3836125e8565b9250826138035761380261331d565b5b828204905092915050565b7f4552433732313a206d696e7420746f20746865207a65726f2061646472657373600082015250565b6000613844602083612538565b915061384f8261380e565b602082019050919050565b6000602082019050818103600083015261387381613837565b9050919050565b7f4552433732313a20746f6b656e20616c7265616479206d696e74656400000000600082015250565b60006138b0601c83612538565b91506138bb8261387a565b602082019050919050565b600060208201905081810360008301526138df816138a3565b905091905056fea264697066735822122004a6f4954410cbf39dd656b322b942bb839313fe867023ec82fb7cb817fac84664736f6c63430008090033",
  "devdoc": {
    "kind": "dev",
    "methods": {
      "approve(address,uint256)": {
        "details": "See {IERC721-approve}."
      },
      "balanceOf(address)": {
        "details": "See {IERC721-balanceOf}."
      },
      "getApproved(uint256)": {
        "details": "See {IERC721-getApproved}."
      },
      "isApprovedForAll(address,address)": {
        "details": "See {IERC721-isApprovedForAll}."
      },
      "name()": {
        "details": "See {IERC721Metadata-name}."
      },
      "owner()": {
        "details": "Returns the address of the current owner."
      },
      "ownerOf(uint256)": {
        "details": "See {IERC721-ownerOf}."
      },
      "renounceOwnership()": {
        "details": "Leaves the contract without owner. It will not be possible to call `onlyOwner` functions anymore. Can only be called by the current owner. NOTE: Renouncing ownership will leave the contract without an owner, thereby removing any functionality that is only available to the owner."
      },
      "safeTransferFrom(address,address,uint256)": {
        "details": "See {IERC721-safeTransferFrom}."
      },
      "safeTransferFrom(address,address,uint256,bytes)": {
        "details": "See {IERC721-safeTransferFrom}."
      },
      "setApprovalForAll(address,bool)": {
        "details": "See {IERC721-setApprovalForAll}."
      },
      "supportsInterface(bytes4)": {
        "details": "See {IERC165-supportsInterface}."
      },
      "symbol()": {
        "details": "See {IERC721Metadata-symbol}."
      },
      "tokenURI(uint256)": {
        "details": "See {IERC721Metadata-tokenURI}."
      },
      "transferFrom(address,address,uint256)": {
        "details": "See {IERC721-transferFrom}."
      },
      "transferOwnership(address)": {
        "details": "Transfers ownership of the contract to a new account (`newOwner`). Can only be called by the current owner."
      }
    },
    "version": 1
  },
  "userdoc": {
    "kind": "user",
    "methods": {},
    "version": 1
  },
  "storageLayout": {
    "storage": [
      {
        "astId": 1296,
        "contract": "contracts/RandomIPFSNFT.sol:RandomIPFSNFT",
        "label": "_name",
        "offset": 0,
        "slot": "0",
        "type": "t_string_storage"
      },
      {
        "astId": 1298,
        "contract": "contracts/RandomIPFSNFT.sol:RandomIPFSNFT",
        "label": "_symbol",
        "offset": 0,
        "slot": "1",
        "type": "t_string_storage"
      },
      {
        "astId": 1302,
        "contract": "contracts/RandomIPFSNFT.sol:RandomIPFSNFT",
        "label": "_owners",
        "offset": 0,
        "slot": "2",
        "type": "t_mapping(t_uint256,t_address)"
      },
      {
        "astId": 1306,
        "contract": "contracts/RandomIPFSNFT.sol:RandomIPFSNFT",
        "label": "_balances",
        "offset": 0,
        "slot": "3",
        "type": "t_mapping(t_address,t_uint256)"
      },
      {
        "astId": 1310,
        "contract": "contracts/RandomIPFSNFT.sol:RandomIPFSNFT",
        "label": "_tokenApprovals",
        "offset": 0,
        "slot": "4",
        "type": "t_mapping(t_uint256,t_address)"
      },
      {
        "astId": 1316,
        "contract": "contracts/RandomIPFSNFT.sol:RandomIPFSNFT",
        "label": "_operatorApprovals",
        "offset": 0,
        "slot": "5",
        "type": "t_mapping(t_address,t_mapping(t_address,t_bool))"
      },
      {
        "astId": 2284,
        "contract": "contracts/RandomIPFSNFT.sol:RandomIPFSNFT",
        "label": "_tokenURIs",
        "offset": 0,
        "slot": "6",
        "type": "t_mapping(t_uint256,t_string_storage)"
      },
      {
        "astId": 1165,
        "contract": "contracts/RandomIPFSNFT.sol:RandomIPFSNFT",
        "label": "_owner",
        "offset": 0,
        "slot": "7",
        "type": "t_address"
      },
      {
        "astId": 3417,
        "contract": "contracts/RandomIPFSNFT.sol:RandomIPFSNFT",
        "label": "requestIdtoOwner",
        "offset": 0,
        "slot": "8",
        "type": "t_mapping(t_uint256,t_address)"
      },
      {
        "astId": 3432,
        "contract": "contracts/RandomIPFSNFT.sol:RandomIPFSNFT",
        "label": "s_tokenUris",
        "offset": 0,
        "slot": "9",
        "type": "t_array(t_string_storage)dyn_storage"
      },
      {
        "astId": 3436,
        "contract": "contracts/RandomIPFSNFT.sol:RandomIPFSNFT",
        "label": "s_tokenCounter",
        "offset": 0,
        "slot": "10",
        "type": "t_uint256"
      },
      {
        "astId": 3441,
        "contract": "contracts/RandomIPFSNFT.sol:RandomIPFSNFT",
        "label": "s_initialized",
        "offset": 0,
        "slot": "11",
        "type": "t_bool"
      }
    ],
    "types": {
      "t_address": {
        "encoding": "inplace",
        "label": "address",
        "numberOfBytes": "20"
      },
      "t_array(t_string_storage)dyn_storage": {
        "base": "t_string_storage",
        "encoding": "dynamic_array",
        "label": "string[]",
        "numberOfBytes": "32"
      },
      "t_bool": {
        "encoding": "inplace",
        "label": "bool",
        "numberOfBytes": "1"
      },
      "t_mapping(t_address,t_bool)": {
        "encoding": "mapping",
        "key": "t_address",
        "label": "mapping(address => bool)",
        "numberOfBytes": "32",
        "value": "t_bool"
      },
      "t_mapping(t_address,t_mapping(t_address,t_bool))": {
        "encoding": "mapping",
        "key": "t_address",
        "label": "mapping(address => mapping(address => bool))",
        "numberOfBytes": "32",
        "value": "t_mapping(t_address,t_bool)"
      },
      "t_mapping(t_address,t_uint256)": {
        "encoding": "mapping",
        "key": "t_address",
        "label": "mapping(address => uint256)",
        "numberOfBytes": "32",
        "value": "t_uint256"
      },
      "t_mapping(t_uint256,t_address)": {
        "encoding": "mapping",
        "key": "t_uint256",
        "label": "mapping(uint256 => address)",
        "numberOfBytes": "32",
        "value": "t_address"
      },
      "t_mapping(t_uint256,t_string_storage)": {
        "encoding": "mapping",
        "key": "t_uint256",
        "label": "mapping(uint256 => string)",
        "numberOfBytes": "32",
        "value": "t_string_storage"
      },
      "t_string_storage": {
        "encoding": "bytes",
        "label": "string",
        "numberOfBytes": "32"
      },
      "t_uint256": {
        "encoding": "inplace",
        "label": "uint256",
        "numberOfBytes": "32"
      }
    }
  }
}